:020000040800F2
:10000000000400206101000841420008414200084C
:1000100041420008414200084142000841420008B4
:1000200041420008414200084142000851200008B6
:100030004142000841420008414200084142000894
:100040004142000841420008414200084142000884
:100050004142000841420008414200084142000874
:1000600041420008414200084142000821200008A6
:10007000F11F0008C11F0008911F0008611F000840
:10008000311F0008011F00084142000841420008DA
:100090004142000841420008414200084142000834
:1000A0004142000841420008414200084142000824
:1000B000611E00084142000841420008B1200008CA
:1000C000B1210008414200084142000841420008B5
:1000D00041420008E11D0008414200087128000863
:1000E00041420008414200084142000841420008E4
:1000F00041420008414200084142000841420008D4
:1001000041420008414200084142000841420008C3
:1001100041420008414200084142000841420008B3
:1001200041420008414200084142000841420008A3
:100130004142000841420008414200084142000893
:100140004142000841420008414200084142000883
:100150004142000841420008414200084142000873
:1001600072B6234880F30988022080F31488BFF315
:100170006F8F04F0A5F802F0F3F94FF055301D49E8
:100180001D4A91423CBF41F8040BFAE71B49184A4B
:1001900091423CBF41F8040BFAE71949194A1A4B3E
:1001A0009A423EBF51F8040B42F8040BF8E70020D6
:1001B0001649174A91423CBF41F8040BFAE704F094
:1001C00047F804F075F8134C134DAC4203DA54F8B9
:1001D000041B8847F9E701F043FA104C104DAC427C
:1001E00003DA54F8041B8847F9E704F059B8000013
:1001F000000800200000002000040020000400206F
:10020000D06D000800080020B8080020B8080020C1
:10021000001400206001000860010008600100086F
:100220006001000800000000000000000000000065
:100230002DE9F04FC1F80CD0C3689D46BDE8F08FA2
:10024000002383F311882846A047002003F0F8FD1F
:1002500003F0E6FA00DFFEE7000000000000000007
:10026000024B00221B605B609A6070473C080020D4
:10027000044A054B002112605260916099601B6036
:100280005B6070473C0800204C0800200000000024
:10029000024B00221B605B609A6070473C080020A4
:1002A000024B00221B605B609A60704730080020A0
:1002B000024B00221B605B609A6070473008002090
:1002C000024B00221B605B609A6070473008002080
:1002D0002DE9F041844D854BAA6982B094684FF4B2
:1002E000A471671C3A4600938148824B03F018FBC7
:1002F000814E824B04F1020830604FF4A4714246F3
:1003000000937F487F4B03F00BFB70607E4803F047
:1003100057FDAB6901209968611AB1FA81F1490969
:1003200002F086F810B102B0BDE8F081642003F05D
:10033000F7FEAB6902209968791AB1FA81F149098F
:1003400002F076F80028EED1704803F039FDAB6971
:1003500003209968791AB1FA81F1490902F068F825
:100360000028E0D1642003F0DBFEAB69042099682B
:10037000C1EB0801B1FA81F1490902F059F80028EE
:10038000D1D1624803F07CFCAB6905209968791AE9
:10039000B1FA81F1490902F04BF80028C3D1642079
:1003A00003F0BEFEAB6906209968791AB1FA81F1B3
:1003B000490902F03DF80028B5D103F009FCAB690A
:1003C00007209968611AB1FA81F1490902F030F801
:1003D0000028A8D101F0ACFF4D4B4FF4A47100935D
:1003E0003A46444B424803F09BFA4A4B30604FF484
:1003F000A47100934246434B414803F091FA706068
:10040000414803F0DDFCAB6908209968611AB1FA34
:1004100081F1490902F00CF8002884D1642003F02E
:100420007FFEAB69092099687B1A5942594101F056
:10043000FFFF00287FF477AF344803F0C1FCAB69BD
:100440000A209968C1EB070CDCF1000141EB0C01BB
:1004500001F0EEFF00287FF466AF642003F060FE39
:10046000AB690B209968C1EB080EDEF1000141EB8E
:100470000E0101F0DDFF064600287FF454AF202373
:1004800083F31188214803F0D3FB03F0D1F986F3FD
:100490001188AB690C2099687E1A7142714101F094
:1004A000C7FF00287FF43FAF642003F039FEAB693B
:1004B0000D2099687A1A5142514101F0B9FF002884
:1004C0007FF431AF03F084FBAB690E209968631AA7
:1004D0005942594101F0ACFF00287FF424AF02B02B
:1004E000BDE8F04101F024BFA01100200060000829
:1004F0002809002021050008F412002004600008EB
:10050000700A0020410500084C0800203C0800202B
:10051000086000080C6000080000000000000000F7
:1005200010B5064C322003F0FBFD204603F048FCDA
:100530002046BDE8104003F0A3BB00BF4C080020DC
:1005400010B5064C962003F0EBFD204603F038FC76
:100550002046BDE8104003F093BB00BF3C080020DC
:1005600070B5294E82B0B36928489C6803F028FC16
:10057000274B621C00934FF4A471264B264803F0CE
:10058000CFF9264D264B2860A21C00934FF4A4718E
:10059000204B244803F0C4F9234B6860E21C00930D
:1005A0004FF4A4711B4B214803F0BAF9204BA8600B
:1005B000221D00934FF4A471164B1E4803F0B0F9AE
:1005C0001D4B4FF4A471621DE86000931B48114B52
:1005D00003F0A6F928610D4803F052FB01F0A8FED4
:1005E000B36901209968611AB1FA81F1490901F0F2
:1005F0001FFF08B102B070BD1149022002B0BDE872
:10060000704001F0EDBE00BFA01100203C080020AA
:10061000146000082107000828090020F4120020B7
:1006200008600008700A00200C600008B80B002069
:1006300000600008000D002004600008480E002043
:100640001060000800000000000000000000000032
:10065000F0B5274F274EBB69274D9A68274983B0CD
:100660002B460091053A30464FF4A47103F058F937
:10067000BB69234C9A68234920602B460091043AB9
:1006800006F5A4704FF4A47103F04AF9BB691E4942
:100690009A6860602B460091033A06F524704FF487
:1006A000A47103F03DF9BB6918499A68A0602B4614
:1006B0000091023A06F576704FF4A47103F030F918
:1006C000BB6913499A68E060013A2B46009106F530
:1006D000A4604FF4A47103F023F9206101F028FE17
:1006E0000C49012003B0BDE8F04001F079BE00BF25
:1006F000A01100202809002091240008146000089F
:10070000F4120020086000080C6000080060000877
:1007100004600008106000080000000000000000F5
:1007200038B50546054C204603F04AFB287801F011
:1007300097FE2046BDE8384003F0A2BA3C080020EE
:1007400010B50446034803F063F92078BDE8104073
:1007500001F086BE3008002000000000000000000C
:1007600008B5202282F311888368002B05DD03F091
:100770005FF8002383F3118808BD03F031FB03F019
:1007800057F8002383F3118808BD00BF0000000064
:1007900008B5322003F0C4FC202383F311880448F9
:1007A00003F01EFB03F044F8002383F3118808BD17
:1007B00030080020000000000000000000000000E1
:1007C000F0B587B003AD0024039504950594202669
:1007D00086F311882846214603F01AFB03F028F817
:1007E00084F3118886F3118805990120A142CCBFBA
:1007F0000021012101F01CFE074618B184F3118885
:1008000007B0F0BD80F311883F4B4FF4A4719B6992
:100810003E489A683E4B013A009503F081F83D4B03
:100820001860284603F0F4F886F311880599022031
:100830000029CCBF0021012101F0FAFD18B187F396
:10084000118807B0F0BD80F3118886F31188059BED
:10085000002B23DD02F0ECFF002484F31188202715
:1008600087F3118805990320A142D4BF00210121FB
:1008700001F0DEFD06460028C0D180F3118887F321
:10088000118805990420A1F10101B1FA81F149090A
:1008900001F0CEFD30B186F31188B1E7284603F0B0
:1008A0009FFAD7E780F3118887F31188059B002B07
:1008B00023DD02F0BDFF002484F31188202686F397
:1008C000118805990320A142D4BF0021012101F024
:1008D000AFFD0546002891D180F3118886F3118879
:1008E00005990520A1F10101B1FA81F1490901F051
:1008F0009FFD30B185F3118882E7284603F070FA36
:10090000D7E780F311887BE7A01100202809002099
:1009100061070008F4120020000000000000000041
:1009200010B51E4A82B09269002392684FF4A471F8
:10093000013200931A481B4B02F0F2FF1A4C1B4B7A
:10094000186000F0DDFC21680120091BB1FA81F17B
:10095000490901F06DFD08B102B010BDA168022087
:10096000B1FA81F1490901F063FD0028F4D100F0EA
:10097000C7FC21680320091BB1FA81F1490901F084
:1009800057FD0028E8D1A1680420B1FA81F1490996
:1009900002B0BDE8104001F04BBD00BFA011002027
:1009A00028090020B109000830080020F4120020B6
:1009B00010B5044C204603F02BF82046BDE810404B
:1009C00002F08EBF30080020000000000000000090
:1009D000F0B5202583B085F31188554C00212046C1
:1009E00003F0FEFA0023014683F31188A1F1FF31E1
:1009F000B1FA81F10120490901F01AFD08B103B0F3
:100A0000F0BD21680220091BB1FA81F1490901F00A
:100A10000FFD0028F3D1A1680320B1FA81F1490943
:100A200001F006FD06460028E9D1424B4FF4A471BF
:100A30009B6941489A68414B013A009602F070FF69
:100A40003F4B186085F311884FF4FA71204603F08C
:100A5000C7FA074686F3118801F06AFCB7FA87F1F6
:100A60000420490901F0E4FC0028C8D121680520D0
:100A7000091BB1FA81F1490901F0DAFC0028BED165
:100A8000A1680620B1FA81F1490901F0D1FC0646BE
:100A90000028B4D101F03CFC85F311884FF080436D
:100AA0005F6A86F311884126304601F0D9FC85F350
:100AB000118832211E4803F093FA0023014683F384
:100AC0001188A1F1FF31B1FA81F10720490901F044
:100AD000AFFC002893D121680820091BB1FA81F1ED
:100AE000490901F0A5FC002889D1A1680920B1FAC3
:100AF00081F1490901F09CFC0136F6B200287FF42F
:100B00007EAF462ED0D10A200E4901F069FC0028A4
:100B10007FF475AFBFB207F1FA0107F1FC0289B2A9
:100B200092B20B2003B0BDE8F04001F031BC00BF31
:100B300030080020A011002028090020910700089B
:100B4000F412002010600008000000000000000007
:100B5000F0B54B4D4B4FAB6983B09A684FF4A4711D
:100B60000532494B4948009702F0DAFEAB69484C20
:100B70009A68484B2060013200934FF4A471424BB5
:100B8000454802F0CDFEAA69444B92684FF4A47127
:100B900060600332009342483B4B02F0C1FEAA69F9
:100BA000404B92684FF4A471A060043200933E4819
:100BB000354B02F0B5FEAA693C4B92684FF4A47124
:100BC0000232E06000933A482F4B02F0A9FE206108
:100BD000384802F085FE374802F082FE354802F0C0
:100BE0007FFE344802F07CFE324802F079FE01F0CC
:100BF0009FFB0120304901F0F3FB064608B103B02A
:100C0000F0BDAB694FF4A4719A6820480532009793
:100C10001D4B02F085FE2023206083F31188254CB4
:100C20000225274602E0012D0ED00125A3680133DD
:100C3000002BA360F7DC386803685F603B6002F05C
:100C40002FFF012D0662F0D102F0F2FD002585F3A1
:100C5000118801F06DFB202383F31188A168022025
:100C6000A1F10101B1FA81F1490901F0E1FB18B9E3
:100C700080F3118803B0F0BD85F3118803B0F0BD97
:100C8000A011002004600008410700082809002086
:100C9000F412002000600008700A00200C600008B8
:100CA000B80B002008600008000D00201460000848
:100CB000480E0020300800201060000800000000EE
:100CC0002DE9F04F474E484DB369DFF834919A68EB
:100CD000464983B04B460091043A28464FF4A4712C
:100CE00002F01EFEB369DFF81C819A684049A5F541
:100CF000A474C8F804004B460091053A20464FF40E
:100D0000A47102F00DFEB3693A499A68C8F8000070
:100D10004B460091013A05F576704FF4A47102F04C
:100D2000FFFDB36934499A68C8F810000091023A8F
:100D300005F524704B464FF4A47102F0F1FD20221A
:100D4000C8F80C0082F31188B36971699B68DFF8F9
:100D5000B8C0A3F1030ADFF8B4E005F5A4730027D7
:100D600005F51B7BC4F898A2C4F8CCA2C4F8B493D0
:100D7000022005F5B6794FF0010A05F5B875C4F8FB
:100D8000A062C4F89CB2C4F8B8C3C4F8D4E384F831
:100D9000AC02C4F8A41284F8AD72C4F8C872C4F8E6
:100DA000C472C4F8A87284F8AEA20B617361C8F86B
:100DB0000830C4F8B492C4F8B852C4F8BC5287F3EF
:100DC0001188D8F8080082F3118802F069FE87F3D1
:100DD000118801F0ADFA5046084903B0BDE8F04F64
:100DE00001F0FEBAA0110020700A0020086000087F
:100DF000146000080460000800600008106000082B
:100E000091240008F41200200C6000084102000840
:100E1000F8B501F07DFA202686F311884FF0804561
:100E20006C6A0023A4B283F31188642003F078F97C
:100E300004F1640104F1670289B292B2012001F069
:100E4000A7FA00B1F8BD86F311886C6AA4B280F3EA
:100E50001188642003F064F904F1640104F167026D
:100E600089B292B2022001F093FA0028EAD186F307
:100E700011886C6AA4B280F311884FF47A7003F081
:100E80004FF904F57A7104F2EB3289B292B2032081
:100E900001F07EFA0028D5D186F311886C6AA4B2DD
:100EA00080F3118804F16407BFB286F31188696A80
:100EB000791A89B259B9002383F3118804F16702C2
:100EC0003946BDE8F84092B2042001F061BA08202A
:100ED00003F05EF8EFE700BF000000000000000034
:100EE000F8B5494EB3699C68651C284602F0B0FC11
:100EF0000746391BB1FA81F10120490901F098FA3E
:100F000000B1F8BDB36902209968691AB1FA81F19C
:100F1000490901F08DFA0028F3D1384602F098FC17
:100F2000291AB1FA81F10320490901F081FA002858
:100F3000E7D1B36904209968611AB1FA81F14909CE
:100F400001F076FA0028DCD1202383F31188B269FE
:100F500093680233936080F31188B369A71C996882
:100F60000520791AB1FA81F1490901F061FA0028E6
:100F7000C7D1284602F06CFC011BB1FA81F10620B2
:100F8000490901F055FA0028BBD1B36907209968D7
:100F9000791AB1FA81F1490901F04AFA0028B0D171
:100FA000B3690820D96B691AB1FA81F1490901F0D6
:100FB0003FFA0028A5D1E71C384602F049FC281A60
:100FC00041424141092001F033FA002899D1B36927
:100FD0000A2099687A1A5142514101F029FA0028F1
:100FE0008FD1B3690B20D96B7B1A5942594101F05B
:100FF0001FFA002885D1202383F31188B3699C60F0
:10100000DC6380F311887CE7A01100200000000061
:10101000014B5B6883607047001000E00000000037
:1010200080B54027B846244B244A9B69244C9A61DA
:10103000C4F814804FF4FA7003F072F827614FF48B
:10104000FA7003F06DF8802567614FF4FA7003F0D1
:1010500067F865614FF4FA7003F062F825614FF4A8
:10106000FA7003F05DF84FF4807665614FF4FA7022
:1010700003F056F866614FF4FA7003F051F82661F8
:101080004FF4FA7003F04CF84FF4007566614FF4BA
:10109000FA7003F045F865614FF4FA7003F040F818
:1010A00025614FF4FA7003F03BF865614FF4FA7074
:1010B00003F036F8BCE700BFA0110020E064000890
:1010C00000100140000000000000000000000000CF
:1010D00010B52F482F4C01F003FA4FF4A87001F01F
:1010E0000FFA204601F0DCF92B4801F0F9F9442011
:1010F00001F006FA204601F0D3F9284801F0F0F992
:10110000142001F0FDF9204601F0CAF9244801F04D
:10111000E7F90C2001F0F4F9204601F0C1F921486B
:1011200001F0DEF9042001F0EBF9204601F0B8F9F6
:101130001D4801F0D5F9142001F0E2F9204601F034
:10114000AFF91A4801F0CCF9102001F0D9F9204686
:1011500001F0A6F9164801F0C3F9082001F0D0F912
:10116000204601F09DF9134801F0BAF9242001F05E
:10117000C7F9204601F094F90F4801F0B1F9282091
:1011800001F0BEF92046BDE8104001F089B900BF6A
:10119000E8640008F86400080065000810650008AD
:1011A00020650008306500084065000850650008AB
:1011B0006065000870650008806500080000000098
:1011C0002DE9F84F074688461E484FF4A47101F0F8
:1011D0008FFA044698B3202383F311881A4ADFF864
:1011E0006CA0D2F814C0DFF8689000254FF0010E13
:1011F00000F1280300F5927B00F1240602218760AC
:10120000C0F80CB001770261C0F814C0C0F82881A2
:10121000C763C0F824A1C0F8449185634563856124
:1012200080F81EE02946CCF81000466280F81DE0E8
:101230008362C362506102F023FB85F3118820466C
:10124000BDE8F88F20130020A0110020D150000825
:101250004102000800000000000000000000000043
:101260002DE9F84F214E80463046894601F0B8F905
:101270000446002837D0202383F3118873681C4A62
:10128000243B1C4DD2F814A000EB030E1A49C0F801
:101290000CE04FF0020CC55000F12407002500F1CE
:1012A00028034FF0010BCEF80490CEF82010C0F8C0
:1012B00008800261C0F814A0C0F83C8080F81EB01D
:1012C00080F81CC08563456385612946CAF8100013
:1012D000476280F81DC006648362C362506102F0F9
:1012E000CFFA85F311882046BDE8F88F940F0020CF
:1012F000A0110020D15000084102000800000000A9
:1013000010B5202383F31188154CA3680133002BFB
:10131000A3601BDD013B002BA360114A06DB02F03A
:1013200087FA0020002383F3118810BD0D4953680C
:101330008C69052084E80C001C602262546002F075
:101340002FFB206A002383F3118810BD20680368F7
:101350005C60236002F0A4FB0022A3680262D9E76C
:1013600030080020A0110020000000000000000054
:1013700008B5202383F31188064B1868984205D0DE
:101380000268002153601A6002F07AFA002383F3A6
:10139000118808BD2808002000000000000000009F
:1013A000074B1A689A420AD0116810B400244B60A7
:1013B0001462104619605DF8044B02F071BB70476F
:1013C00028080020000000000000000000000000CD
:1013D000202383F31188044A00239269506B5363DE
:1013E00083F31188704700BFA011002000000000A7
:1013F0000B4A10B52023946983F31188636B33B9CA
:101400004FF0FF3323620A2002F0CAFA636B58429E
:10141000184023EA00036363002383F3118810BD9F
:10142000A0110020000000000000000000000000EB
:101430000B4A10B52023946983F31188606B30B98F
:101440004FF0FF330A20236202F0AAFA606B636B4D
:10145000002223EA0003636382F3118810BD00BFFA
:10146000A0110020000000000000000000000000AB
:1014700070B52023064683F311880D4C04F11C003F
:1014800002F0AEFD054670B9A2686168131D8B427B
:10149000A36028BF23681660064828BFA36002F037
:1014A0009FFC02F0C5F9002383F31188284670BD24
:1014B00000080020100800200000000000000000CC
:1014C00038B50C4B5A6A002A10DD9C685D68211DF6
:1014D000013AA9425A6228BF1A68996020600648FA
:1014E00028BF9A6002F07CFC002038BD4FF0FF302E
:1014F00038BD00BF000800201008002000000000D8
:1015000070B52023064683F311880E4C04F11C00AD
:1015100002F066FD054658B9E3682268043B934231
:10152000E3600AD31E60084802F05AFC02F080F91A
:10153000002383F31188284670BD6368043BE36091
:10154000F0E700BF000800201008002000000000A5
:101550000C4A516A002911DDD36810B51468043BA8
:101560000139A3425162D36002D25368043BD36075
:101570001860054802F034FC002010BD4FF0FF3029
:10158000704700BF00080020100800200000000085
:1015900070B52023064683F311880E4C04F1100029
:1015A00002F01EFD054678B9E368626819680433E5
:1015B0009342E36028BF23683160074828BFE36097
:1015C00002F00EFC02F034F9002383F31188284660
:1015D00070BD00BF000800201C08002000000000B3
:1015E0000C4B9A69002A12DD511EDA6810B5996118
:1015F0005968146804328A42DA6028BF1A680460A5
:10160000054828BFDA6002F0EBFB002010BD4FF068
:10161000FF307047000800201C0800200000000078
:1016200008B50B4B00221A70202383F31188094858
:10163000C3680BB102F02CFC06484FF47A71064ADD
:10164000002302F065FC002383F3118808BD00BF6E
:101650001111002008130020611D00080000000087
:1016600000210A460E46C34B4FF0FF301C692DE99E
:10167000804818611961DC68D860D960D869BE4CAF
:1016800040F08050D861D869BC4D40F00060D8610E
:101690002368BB4843F48073BA4F23608BB0296042
:1016A000436800251E6047F832600132072A00F1C6
:1016B0001400F5D14BF67F3C4FF6FF74B24B4FF65A
:1016C000FF0B4FF0FF31AB4F5960D7F81880DFF8B0
:1016D000FCE2AE4A48F07D08C7F81880DFF8F092C7
:1016E0006FF42848CEF80C80A3F57443CEF804209C
:1016F000DFF8E0824FF08832CEF80020D960C3F8DE
:1017000004904FF03339C3F80080A14ECEF80C1886
:1017100008F10948CEF80498CEF80098DFF8B8929E
:101720009B480EF5006EA8F24458C3F80C18C3F895
:101730000428C3F80088CEF80C18964BCEF804287D
:10174000DFF89882CEF8002846F8049B4660AEF594
:101750003C4E00F10C06C6600661C3F834E0A8F107
:10176000140603F10C0E00F154091E63C3F80CE0DB
:101770000126C3F810E04FF0100E45615D605D6119
:10178000DD61C3F82C801E700672C0F81890C0F896
:1017900038E0FB69804A3343167055709570C0F885
:1017A0002490DFF83CA2FB61C0F8209000F174099E
:1017B000C0F84090DFF82C92DAF80430C0F84C9072
:1017C000DFF8249243F4006385625560C0F874909A
:1017D000C0620065CAF804300823D36009F5704977
:1017E000A8F13C03C2F808905361A8F128094FF012
:1017F0008043C2F81090DFF8F481C3F828C0674A2C
:10180000DC6200F1640C00F130049D614FF080094E
:10181000C0F81CC05D63C0F83CC0DD60C0F848C0C3
:101820005D60046344634FF08054C0F844C05E615F
:101830001E6088F81C93C8F88041C8F80040956085
:10184000D468574B0BEA040B43EA0B03554CD360A7
:10185000E368554843F08073E3600368534C3343B7
:1018600003604FF0200A04F11C0382F81FE00DEB27
:101870000E0082F822A00022E3612362246000238C
:101880006460CDE908230491A18405950695079528
:10189000A56024616461E5842567FFF7B9FB04A8AE
:1018A00001F066FF424B069803F1100EDFF840C1CD
:1018B000D4F814B0C3F810E0C3F814E03D494FF079
:1018C000400E3D4AC3F800C020679D6104F12C0022
:1018D000C4F834E0C4F868E09D60DD60DFF814E12E
:1018E000364B21F0070122F0070284F84950656663
:1018F000256684F84A606564E463C4F840B004F186
:10190000500CCBF810006061A06104F1540084F821
:101910004860C4F850C06065A065CEF800101A6039
:1019200085F3118862B62649A3693246996104F1AC
:101930007800D8210095234B01F0F2FF224B836100
:101940008AF31188124B1B7AB3420AD1FB69C02279
:1019500043F48023FB6188F82723C8F88491C8F8F2
:10196000049040F2712244F2400142F22C10084BE4
:10197000012441E00010024000700040F0120020FD
:1019800060630008F008002000000240B8848888E6
:1019900014110020B80800204413002000ED00E0DE
:1019A0000003FA05F0ED00E0001000E0A0110020B7
:1019B000F01000200714002000500020EC10002040
:1019C000B060000871360008706600080008014029
:1019D000884B8888888888FF10610008D8630008D1
:1019E000002004E0711D00080048004000E100E014
:1019F00071200008601300205B6F9A60002219615B
:101A00005C61D8601A6018685B68094B0221197222
:101A100082F31188074C009207484FF4A4714022CA
:101A2000064B01F07DFFA246054EDFF818B00FE02F
:101A300014110020E8100020A00F00202110000841
:101A400040130020F41200204FF4FA7002F068FBFB
:101A50009E4B9B68DB05F7D49D4B9E48236000F0AE
:101A60001FFD9D4800F01CFD9C4D9D4800F018FD99
:101A70002A21206803689B68984715F8011F0029F0
:101A8000F7D19848984D00F00BFD2A212068036893
:101A90009B68984715F8011F0029F7D19348944D8A
:101AA00000F0FEFC2A21206803689B68984715F81F
:101AB000011F0029F7D18F488F4D00F0F1FC2A213A
:101AC000206803689B68984715F8011F0029F7D123
:101AD0008A488B4D00F0E4FC2A21206803689B684B
:101AE000984715F8011F0029F7D18648864D00F068
:101AF000D7FC2A21206803689B68984715F8011FC6
:101B00000029F7D18148824D00F0CAFC2A212068C3
:101B100003689B68984715F8011F0029F7D17D4895
:101B20007D4D00F0BDFC2A21206803689B68984722
:101B300015F8011F0029F7D17848029100F0B0FC98
:101B4000644800F0ADFC764B0299DFF808921970FA
:101B5000744B0393029B00270133029359F82730FB
:101B600009EB8705002B00F08A80DFF8EC8100F09C
:101B7000B7FB2D21206803689B68984718F8011F60
:101B80000029F7D1029800F0BBFCDAF800002E2102
:101B9000036801379B689847DFF8C081384600F03A
:101BA000AFFC2021206803689B68984718F8011F44
:101BB0000029F7D12B68D3F8008098F8001039B1CC
:101BC000206803689B68984718F8011F0029F7D11F
:101BD000554800F065FCC82002F0A2FA2D680023E9
:101BE0005249CBF80030CBF80430CBF80830CBF8B2
:101BF0000C30CBF8103031606A684D490B7002B17F
:101C00009047EB689847AB6803B1984700F090FBAA
:101C1000474B1B78002B50D0464D2D212068036880
:101C20009B68984715F8011F0029F7D1424B434D97
:101C3000186800F065FC2021206803689B689847BD
:101C400015F8011F0029F7D13368384A934209D9A2
:101C5000364D206815F8011B03689B689847336868
:101C60009D42F6D3364800F01BFC039BD3F800904E
:101C700059F8273009EB8705002B7FF476AF039BDB
:101C800053F8049F0393B9F1000F7FF463AF00F0A2
:101C900027FB2C4D0F4800F003FC46212068036809
:101CA0009B68984715F8011F0029F7D11C4B1B783A
:101CB0003BB9254800F0F4FBC6E6244800F0F0FBF1
:101CC0004CE7234800F0ECFBBEE600BF00080140F3
:101CD00014110020906D00087866000890650008D7
:101CE00094660008BC660008A4650008C466000885
:101CF000B8650008DC660008CC650008FC660008D2
:101D0000E065000804670008F46500081067000833
:101D100008660008286700081C6600085467000869
:101D200010110020A06200089866000890110020A1
:101D30008C11002044660008900F00205C660008AB
:101D40009C66000860660008AC660008A066000893
:101D5000B46600085060000830660008406600085D
:101D6000014B01221A707047111100200000000081
:101D7000024AD36843F08003D360704700480040B4
:101D8000202383F311880F4B5B6813F4006302D1A7
:101D900083F311887047EFF309834FF0807243F8A3
:101DA000042CA3F1200282F30988074A1168926982
:101DB0008968926891428CBF044A054A43F8082C0E
:101DC000704700BF00ED00E0A011002051020008A4
:101DD00054020008000000000000000000000000A5
:101DE000F8B540F20F131C4EB468E76825686268C6
:101DF0002B40EBB172686FF4807312692360BAB143
:101E0000ABB213F0080F0CBF00211021D80748BF58
:101E100041F00401980748BF41F00801580748BF46
:101E200041F02001D80548BF41F040010A489047E1
:101E30006A060CD57B060AD5736827F040075B68F5
:101E40006FF040022260E7600BB103489847BDE89D
:101E5000F840FFF795BF00BF4413002000000000CA
:101E60002DE9F0414FF0804423699B0703D4BDE87E
:101E7000F041FFF785BF00272761202585F31188F2
:101E80001E4E626AB6F826E0F36990B2CEEB00010E
:101E90001A8989B2914206F11C081BD31968724451
:101EA0004145F284DA68C1F80480F161DF6008BF5F
:101EB000E76087F311881869904785F31188626A93
:101EC000B6F826E0F36990B2CEEB00011A8989B228
:101ED0008A42E3D943450AD07244121A92B2012AC7
:101EE00098BF0222024492B24FF080435A6300230B
:101EF00083F31188BDE8F041FFF742BFA011002035
:101F0000094B1968C1F3036159B1084810B5046B56
:101F10000A065A600CB1406BA047BDE81040FFF7BD
:101F20002FBFFFF72DBF00BF00000240F0080020C8
:101F3000094B1968C1F3035159B1084810B5846AB7
:101F40000A055A600CB1C06AA047BDE81040FFF70F
:101F500017BFFFF715BF00BF00000240F0080020C8
:101F6000094B1968C1F3034159B1084810B5046A17
:101F70000A045A600CB1406AA047BDE81040FFF760
:101F8000FFBEFFF7FDBE00BF00000240F0080020CA
:101F9000094B1968C1F3033159B1084810B5846978
:101FA0000A035A600CB1C069A047BDE81040FFF7B2
:101FB000E7BEFFF7E5BE00BF00000240F0080020CA
:101FC000094B1968C1F3032159B1084810B50469D8
:101FD0000A025A600CB14069A047BDE81040FFF703
:101FE000CFBEFFF7CDBE00BF00000240F0080020CA
:101FF000094B1968C1F3031159B1084810B5846839
:102000000A015A600CB1C068A047BDE81040FFF754
:10201000B7BEFFF7B5BE00BF00000240F0080020C9
:1020200008B5074B196811F00F0105D0054A596032
:1020300013680BB150689847BDE80840FFF7A0BE91
:1020400000000240F0080020000000000000000036
:10205000EFF30983203383F30988002383F3118886
:10206000704700BF000000000000000000000000FA
:1020700010B4202383F31188094C0A4B2268196895
:10208000C31D23F00703891A8B429DBF9B18236051
:1020900010460020002383F311885DF8044B70473D
:1020A00060130020EC100020000000000000000081
:1020B0003B4A38B5546B3B49A369656945EA03431C
:1020C00023F07F438B424CD01ED807398B423CD043
:1020D00001318B4210D1D36A62685B6822F40072CE
:1020E00062601A6842F001021A60626842F480522B
:1020F00062605B68012B4ED915F00A0F18BFA36907
:10210000BDE83840FFF73CBE27498B4212D0023170
:102110008B42F1D1D36A5B685B683BB32368118C57
:1021200043F4A06341F0010111842360BDE838400D
:10213000FFF726BE6368126B23F400735268636076
:10214000136843F001031360D6E7138C1A0A0BD00F
:1021500003F0010343F0F00302F00602134323618E
:10216000CAE7138CC3F347032361C5E761682020E6
:1021700021F400716160216841F40071216080F3F5
:102180001188D06918B10362D36101F089FC002382
:1021900083F31188B0E7236823F480632360ABE7FF
:1021A000B8080020080003008200070000000000BB
:1021B000384AF8B5506B156B4769D5F804E0B9B2E9
:1021C00001F45F43DB434361DEF80060D36A26F02D
:1021D0000F06CEF800602E7C0F242D6804FA06FE50
:1021E0005E68C5F804E03568D3F800E025F00F0517
:1021F00035601D7C01F48073AC409BB2CEF8044086
:10220000002B3FD193608D0544BF43F002039360E0
:102210004C050AD5446843F0040324F40074446078
:10222000046844F40074046093600E0544BF43F0F6
:10223000080393604D0444BF43F020039360CC0433
:1022400018D543F01003380493601FD4202383F380
:102250001188D0690F4B30B16FF001020262002289
:10226000DA6101F01DFC002383F31188BDE8F8401A
:10227000FFF786BD390409D4002BE7D1BDE8F8404B
:10228000FFF77EBD012423469460BCE743F0400382
:102290009360DBE7B80800200000000000000000A9
:1022A0000C3001F0D5BE00BF0000000000000000AF
:1022B0000C304FF6FF7301F0CBBE00BF00000000F2
:1022C0000C3001F005BF00BF00000000000000005E
:1022D0000C304FF6FF7101F0FBBE00BF00000000A4
:1022E00070B5094E4C2430682D210368064D9B685B
:1022F0009847013CF7D128680449036802221B680B
:10230000BDE87040184700BFE8100020606C00086E
:1023100008B5012001F004FF202383F311884FF05A
:102320008043586A002383F3118880B208BD00BF40
:1023300070B5074C002604F1140554F8040B18B1CD
:1023400001F08EFB44F8046CAC42F6D170BD00BFC6
:10235000F412002000000000000000000000000057
:102360000A4B30B403F114002025002453F8042B49
:102370003AB185F31188517F41F00401517784F31C
:1023800011888342F2D130BC704700BFF4120020A4
:1023900010B4202383F311884FF080435C6A00233C
:1023A00083F31188521A641AA1B292B2914206D3F1
:1023B000054C0649064A012323700B70106018462D
:1023C0005DF8044B704700BF101100208C110020F5
:1023D000900F00200000000000000000000000003E
:1023E000F0B40E4E0E4F35683B4605E013F8014B36
:1023F00011F8012B944207D1AB42F7D30B781BB9EC
:1024000037601846F0BC7047064C0749074A01235D
:10241000237010600B701846F0BC7047401300200A
:1024200090110020101100208C110020900F00202E
:1024300059B910B40649074C074A012323701060AC
:102440000B7018465DF8044B704700231846704720
:102450008C11002010110020900F002000000000BF
:1024600010B4202383F31188054A002113685C1CF3
:102470001460187081F311885DF8044B704700BF39
:1024800040130020000000000000000000000000D9
:102490000078FFF7E5BF00BF00000000000000006B
:1024A00070B501780446094D39B1286803689B6806
:1024B000984714F8011F0029F7D1286804490368D8
:1024C00002221B68BDE87040184700BFE8100020DA
:1024D000606C000800000000000000000000000028
:1024E00038B50178044641B1044D286803689B68FB
:1024F000984714F8011F0029F7D138BDE8100020D3
:1025000010B370B584B06D466C46124AA2FB00133E
:10251000DB0803EB8301A0EB410000F13001C9B2FD
:1025200004F8011B1846002BF0D1AC420AD90A4E20
:10253000013C01E014F8011D306803689B6898476E
:10254000AC42F7D104B070BD034B3021186803686A
:102550009B681847CDCCCCCCE810002000000000D0
:102560001A4B19461A6842F001021A600B68174AA2
:102570009807FBD511461368002003F0F903136098
:1025800050604B68114A13F00C0FFAD11146536892
:1025900043F420135360136843F0807313600B6897
:1025A0000A4A9B01FBD5114610B4094B094C112076
:1025B00054601860536843F0020353604B6803F0A3
:1025C0000C03082BFAD15DF8044B70470010024051
:1025D00000200240006468000000000000000000CD
:1025E00008B52022034682F31188006828B10268EA
:1025F0001A60002383F3118808BD9A68002AF8D076
:1026000058689047002383F3118808BD000000003C
:1026100070B50F4C0E46002818BF044604F1100593
:10262000284601F0CDFBA36873B100221446586818
:102630001B6801340244002BF9D106B132602846F0
:1026400001F01EFB204670BD1A461C46F5E700BF90
:10265000F01000200000000000000000000000005A
:10266000F8B550F8085C064605F11007A0F108041B
:102670000835384601F0A4FB2B46AB4204D0A342F8
:1026800002D31B68AB42FAD11A681AB1944201D343
:102690001346F2E756F8041C46F8082C1C6001F1BA
:1026A000080256F8085CA018A8420AD0596801F13F
:1026B00008021A44944210D03846BDE8F84001F0B0
:1026C000DFBA4568A0584A19083206E9050059687A
:1026D00001F108021A449442EED116E905000A44B9
:1026E000083283E805003846BDE8F84001F0C8BA72
:1026F000F8B5214E0731002818BF064606F110072D
:10270000384621F0070506F1080401F059FB03E003
:1027100043689D4212D9044620680028F8D1384603
:1027200001F0AEFA336823B305F10800984700B30F
:102730000660456000F108042046F8BD05F1080177
:10274000994209D9036823600446384644F8086B67
:1027500001F096FA2046F8BD6FF0070EC5EB0E0E9D
:102760009E44036842184350C2F804E0226045606A
:10277000EAE70024E0E700BFF010002000000000BE
:102780002DE9F04F83B004468B4615460193C76987
:102790004FF0200888F311880026B146A3680BF19A
:1027A000010AFBB16269A368501C013B6061A36030
:1027B0009BF800301370236962699A4224BFE36872
:1027C00063610FB12046B84789F31188013D06F1D6
:1027D000010611D088F31188D346A3680BF1010AD2
:1027E000002BDFD120460199009301F019FC009BDA
:1027F0000028D3D083F31188304603B0BDE8F08FB2
:102800003030FFF7BDBF00BF000000000000000037
:1028100030304FF6FF73FFF7B3BF00BF000000007A
:1028200038B5426983699A4219D082680569591C92
:10283000013282608161A9421C780DD20268904207
:1028400008D003461168002501604B6010461562F0
:1028500001F026F9204638BDC3688361EEE782683F
:10286000002AE2D06FF0020038BD00BF0000000077
:102870002DE9F0414B4F7D6FD5F80C802B68DE05BC
:102880009CB25ED4202383F3118814F02F0F08D15B
:1028900031E0A0066E681DD42C68A4B214F02F0F8E
:1028A00029D02007F5D014F0080F0CBF002180219B
:1028B000E20748BF41F02001A30748BF41F04001B3
:1028C000660748BF41F48071374801F069F9A006F6
:1028D0006E68E1D57B697BB3F1B2344801F0F8F85A
:1028E0000028D9DA3048802101F05AF92C68A4B2C6
:1028F00014F02F0FD5D1002383F3118818F0800F27
:1029000001D022062CD4630612D5202383F311882C
:102910007A6CBB6C23489A422FD04FF6BF736FF08E
:10292000400208EA0303EB6000232A6083F3118866
:10293000BDE8F041FFF724BA1B48042101F030F94B
:10294000CAE7202383F311884FF40071381D01F08A
:1029500027F96FF480732B60002383F3118891E7CC
:10296000202383F311881248FFF75AFF00280CDB5D
:102970006860002383F31188C5E7836B002BCCD0FC
:102980000430102101F00CF9C7E70748082101F0D5
:1029900007F94FF63F7308EA030343F04003EB6087
:1029A000E7E700BF141100201811002020110020BB
:1029B00044110020000000000000000000000000A2
:1029C000F8B504460F461646202383F3118805E028
:1029D0002046314601F024FB002817DBA568002DB6
:1029E000F6D06269A368511C013B6161A360177056
:1029F000236962699A4224BFE3686361E3690BB1AA
:102A000020469847002080F31188F8BD85F311888F
:102A1000F8BD00BF00000000000000000000000042
:102A20003030FFF7CDBF00BF000000000000000005
:102A300030304FF6FF72FFF7C3BF00BF0000000049
:102A400070B40B4B0B4A052502F11406002403F168
:102A50001C0003F110015E605D629C611A60DA6027
:102A60009A60D86118621961596170BC704700BFE3
:102A700000080020280900200000000000000000DD
:102A8000064A074B074900200960496012605260FE
:102A9000906098601B605B60704700BF3C0800203E
:102AA0004C08002028080020000000000000000062
:102AB000044B054A0021126052601B605B60996004
:102AC000704700BF3C0800202808002000000000DC
:102AD000044B054A0021126052601B605B609960E4
:102AE000704700BF3C0800202808002000000000BC
:102AF0002DE9F041202382B083F31188954D012008
:102B0000696AA1F10501B1FA81F14909FFF790FC69
:102B1000002840F0898080F31188422420464FF637
:102B2000FF71FEF7A5FCB0FA80F102204909FFF71A
:102B30007FFC013470B9462CF0D14FF6FF71412073
:102B4000FEF7DEFCB0FA80F103204909FFF770FCC4
:102B500000286FD002B0BDE8F08186F3118887F3BA
:102B60001188A1692A20B1FA81F14909FFF760FCB7
:102B7000002840F0998286F31188E168A3682B2031
:102B8000C3EB010EDEF1000141EB0E01FFF750FC3B
:102B90000028DFD187F311882368626804F11C00E4
:102BA000D11A8910A360E36001F032F904F110003A
:102BB000314601F02DF900F03BFE86F3118887F3D2
:102BC0001188616A2C204D1F69426941FFF730FC72
:102BD000002840F0698286F3118887F31188A16983
:102BE0002D20B1FA81F14909FFF722FC002840F0BD
:102BF0005B8286F3118887F311882168A3682E20F1
:102C0000CA1A51425141FFF713FC002840F04C8290
:102C100086F3118887F311882168E3682F20CB1A87
:102C200059425941FFF704FC002383F3118802B095
:102C3000BDE8F08101215820FEF71AFCA0F1FF3118
:102C4000B1FA81F104204909FFF7F2FB044600289C
:102C500080D1202686F311885820FEF731FC0146EA
:102C600084F31188A1F1FF31B1FA81F105204909FE
:102C7000FFF7DEFB00287FF46DAF01215820FEF73F
:102C80003FFCA0F1FF31B1FA81F106204909FFF7BD
:102C9000CFFB044600287FF45DAF86F311885820EF
:102CA000FEF756FC014684F31188A1F1FF31B1FA19
:102CB00081F107204909FFF7BBFB804600287FF41C
:102CC00049AF86F31188696A0820B1FA81F1490990
:102CD000FFF7AEFB1F4C074610B188F3118839E7A8
:102CE00080F3118886F31188A1690920A1F1050EEE
:102CF000DEF1000141EB0E01FFF79AFB10B187F303
:102D0000118827E780F3118886F31188E168A368AA
:102D10000A20CF1A79427941FFF78AFB0023002865
:102D200083D183F31188052405E09DF80400FFF7A3
:102D300097FB013C10D04FF6FF7101A8FEF728FC6D
:102D4000B0FA80F10B204909FFF772FB0028ECD0A4
:102D500000E700BF000800200C20D549FFF740FB2A
:102D600000287FF4F7AE4FF6FF714720FEF780FB97
:102D7000B0FA80F10D204909FFF75AFB00287FF4D3
:102D8000E9AE4FF6FF7101A8FEF702FCB0FA80F140
:102D90000E204909FFF74CFB00287FF4DBAE2968C1
:102DA000AB680F20CE1A71427141C24EFFF740FB53
:102DB00000287FF4CFAE3168F3681020CA1A514260
:102DC0005141FFF735FB00287FF4C4AE012101A873
:102DD000FEF7DEFB431C594259411120FFF728FB47
:102DE00000287FF4B7AE202787F3118801A8FEF7EB
:102DF000F7FB014684F3118801F10108D8F10001C5
:102E000041EB08011220FFF713FB00287FF4A2AE6C
:102E100087F31188716A1320A1F1050CDCF1000120
:102E200041EB0C01FFF704FB00287FF4FDAE4FF0EF
:102E3000000888F31188202484F31188A9691420DC
:102E4000B1FA81F14909FFF7F3FA9A4E07460028D3
:102E50007FF443AF80F3118884F31188F168B3687D
:102E60001520C3EB010EDEF1000141EB0E01FFF76F
:102E7000DFFA00287FF443AF80F3118884F31188D0
:102E80004120FEF71DFBB0FA80F116204909FFF73B
:102E9000CFFA00287FF45EAE4220FEF711FBB0FAB5
:102EA00080F117204909FFF7C3FA00287FF452AEDA
:102EB0004320FEF705FBB0FA80F118204909FFF71F
:102EC000B7FA00287FF446AE4420FEF7F9FAB0FACC
:102ED00080F119204909FFF7ABFA074600287FF473
:102EE00039AE4520FEF7ECFA87F31188B0FA80F18D
:102EF0001A204909FFF79CFA00287FF42BAEF168ED
:102F0000B3681B20CE1A71427141FFF791FA002875
:102F10007FF420AE804626460524202786F31188BC
:102F200001A8FEF75DFB88F31188B0FA80F11C2040
:102F30004909FFF77DFA00287FF40CAE9DF80400E4
:102F4000FFF78EFA013CE8D11D205949FFF748FAF6
:102F500000287FF4FFAD87F31188696A1E204A1F9D
:102F600051425141534EFFF763FA10B184F3118877
:102F7000F0E584F3118887F31188B1691F20B1FA55
:102F800081F14909FFF754FA0028EFD184F3118841
:102F9000F168B3683846CB1A59425941FFF748FAED
:102FA00000287FF4D7AD87F311884520FEF7D0FACB
:102FB000B0FA80F121204909FFF73AFA00287FF49E
:102FC000C9AD4420FEF7C4FAB0FA80F122204909C5
:102FD000FFF72EFA00287FF4BDAD4320FEF7B8FAC4
:102FE000B0FA80F123204909FFF722FA00287FF484
:102FF000B1AD4220FEF7ACFAB0FA80F124204909C5
:10300000FFF716FA00287FF4A5AD4120FEF7A0FADD
:10301000002383F31188B0FA80F125204909FFF7D6
:1030200007FA00287FF496ADE968AB682620C3EB69
:103030000108D8F1000141EB0801FFF7F9F9002878
:103040007FF488AD044605264FF02008202788F33A
:10305000118801A8FEF7C4FA84F31188B0FA80F150
:1030600027204909FFF7E4F900287FF473AD9DF8A4
:103070000400FFF7F5F9013EE8D128200C49FFF7DD
:10308000AFF900287FF466AD87F31188696A2920BB
:10309000A1F1050CDCF1000141EB0C01054CFFF73F
:1030A000C7F900283FF459AD86F3118852E500BFF7
:1030B0001060000800080020000000000000000070
:1030C00010B50446412100F033FD2046422100F0B6
:1030D0002FFD2046BDE81040432100F029BD00BF70
:1030E00070B51F4B82B09C694FF4A471A2681D4B50
:1030F000013200941C4800F013FC1C4B2025186082
:1031000000F066FC066B85F31188314600F0B8FBD1
:10311000002484F31188F0B2FFF7A2F900F058FC04
:10312000066B85F31188314600F0AAFB84F3118801
:10313000F0B2FFF795F900F04BFC066B85F31188B0
:10314000314600F09DFB84F31188F0B2FFF788F957
:103150000749012002B0BDE87040FFF741B900BF48
:10316000A0110020C130000828090020F41200201E
:10317000706C00080000000000000000000000006B
:1031800070B5194B194D9A69194B966882B0721C2B
:10319000009328464FF4A471164B00F0C1FB164C67
:1031A000164B2060B21C009305F5A4704FF4A47177
:1031B000134B00F0B5FB134BF21C4FF4A47160608D
:1031C000009305F52470104B00F0AAFBA060FEF7F9
:1031D000CFF8FEF7CDF8FFF7ABF80C49012002B0AD
:1031E000BDE87040FFF7FCB8A011002028090020BE
:1031F0000460000831320008F41200200C6000085E
:10320000C13200080060000811320008706C00082C
:1032100038B50546054C204600F0D2FD2878FFF76A
:103220001FF92046BDE8384000F02ABD4C080020B8
:10323000F8B507461C4800F0C3FD1C4800F0C0FD6F
:10324000202383F311881A4DAB699E6B304600F042
:10325000EFFC184AAC6910461346226203E09968F5
:10326000A268914202D31B688342F8D15A680720B2
:103270002360626014605C6000F092FBAB691B6AC3
:10328000013302D0304600F033FD002383F3118870
:103290003878FFF7E5F8054800F0F2FCBDE8F840A3
:1032A000014800F0EDBC00BF4C0800203C080020A5
:1032B000A0110020280800200000000000000000ED
:1032C00070B50646164800F07BFD202383F3118875
:1032D000144B9C69A56B284600F0AAFC124A1046C4
:1032E0001346226203E09968A268914202D31B68E8
:1032F0008342F8D15A6807202360626014605C60E2
:1033000000F04EFB284600F0F3FC002383F3118805
:103310003078FFF7A5F8BDE87040014800F0B0BC78
:103320003C080020A0110020280800200000000018
:1033300030B52C4A2C4B926983B095684FF4A47138
:103340006A1C009329482A4B00F0EAFA294C2A4BC0
:103350002060AA1C00934FF4A471254B274800F06D
:10336000DFFA274B6060EA1C00934FF4A471204BF6
:10337000244800F0D5FA244BA0602A1D00934FF496
:10338000A4711B4B214800F0CBFA214BE0606A1D71
:1033900000934FF4A471164B1E4800F0C1FA20238D
:1033A000206183F311881C4C2368A34218BF6FF07F
:1033B000010509D01A6818465460226000F070FBBD
:1033C00023680562A342F5D100F032FA002383F3AB
:1033D0001188FEF7ADFF1149012003B0BDE8304070
:1033E000FEF7FEBFA011002014600008280900208D
:1033F000C1320008F412002008600008700A0020A2
:103400000C600008B80B002000600008000D0020D0
:1034100004600008480E0020280800201060000802
:10342000F0B52C4B2C4E9B692C4D9F682C4983B0DA
:103430007A1C2B46009130464FF4A47100F070FACC
:10344000284C29492060BA1C2B46009106F5A4702F
:103450004FF4A47100F064FA24496060FA1C2B4612
:10346000009106F524704FF4A47100F059FA204938
:10347000A0603A1D2B46009106F576704FF4A471BA
:1034800000F04EFA1B49E0602B4600917A1D06F5CC
:10349000A4604FF4A47100F043FA2023206183F369
:1034A0001188FDF77DFFFDF77BFFFDF779FFFDF745
:1034B00077FFFDF775FF00F0BBF9002383F3118858
:1034C000FEF736FF0C49012003B0BDE8F040FEF7DF
:1034D00087BF00BFA011002028090020C1320008CA
:1034E00014600008F4120020086000080C60000856
:1034F0000060000804600008106000080000000080
:103500002DE9F0413B4D2023AA69966883F3118889
:10351000394C0021A368002B5ED0002383F311886F
:103520000120FEF785FF014608B1BDE8F0812023A8
:1035300083F31188A368304A002B54D00121002363
:1035400083F311880220FEF773FF07460028ECD1B1
:10355000202383F31188DFF8A080404600F068FB49
:1035600087F3118821680320091BB1FA81F1490909
:10357000FEF75EFF0028D8D1D8F808100420B1FA71
:1035800081F14909FEF754FF0028CED1AB6905202F
:103590009968711AB1FA81F14909FEF749FF0028CB
:1035A000C3D1404600F00CFC00F012FBD8F800102C
:1035B0000620C8EB0101B1FA81F14909FEF738FF95
:1035C0000028B2D1D8F808100720B1FA81F1BDE87F
:1035D000F0414909FEF72CBFAB6901219A6BA3604A
:1035E000E2609C6399E7AB69986B9360D0609A63E3
:1035F000A5E700BFA01100203C080020000000004B
:1036000010B4202383F31188037F072B0ED8DFE843
:1036100003F0270D0D2308040D08026A9368013397
:10362000936090E80C001A60026853604FF0FF341A
:10363000002281680D4B046202771B689A688A42F7
:10364000FBD25A680021036042601060586081F329
:1036500011885DF8044B7047036A00221A60E5E7A1
:10366000002383F311885DF8044B7047A0110020FC
:10367000FEE700BF000000000000000000000000A6
:103680000D4AF0B410689469056801270026A16806
:103690002B466A60156007779061267700E01B680B
:1036A0009A688A42FBD85A68214623606260146097
:1036B0005C60F0BCFCF7BCBDA01100200000000065
:1036C000202383F31188024602E08B4207D01A467A
:1036D00013688342F9D1002383F3118870470B6884
:1036E0001360002383F31188704700BF00000000BF
:1036F0000246202181F31188837F013BDBB283776F
:103700004BB910B4047F0F2C09D0002383F3118828
:103710005DF8044B7047002383F311887047447FA2
:1037200004F00304012C11D0022CEED1146940697D
:1037300004611469606183F31188106C81F311884E
:1037400001681160026083F31188E1E7416904694F
:103750000C610269516183F311885DF8044BFEF737
:103760007FBF00BF0000000000000000000000005C
:103770000E4B0F495A688368096FD31AC26830B478
:10378000D0E904455B1A01324168E418C26002685E
:1037900045F100058B4288BF43609342C0E9044570
:1037A00030BC836038BF0360704700BF001000E08A
:1037B000A011002000000000000000000000000038
:1037C000F8B5202383F31188124A1068946983683E
:1037D000A1688B4203D2002383F31188F8BD0568EA
:1037E000012700266A602B460777156090612677CF
:1037F00000E01B689A689142FBD95A682146236011
:10380000626014605C60FCF713FD002383F3118891
:10381000F8BD00BFA0110020000000000000000063
:10382000FFF72EBF000000000000000000000000B5
:10383000044B1A689B6992689B689A4200D870474B
:10384000FFF71EBFA01100200000000000000000D4
:1038500010B5202383F31188084B9B69DC6B9968B2
:103860008C4201D0814200D29860D863FFF7E0FF1C
:10387000002383F31188204610BD00BFA011002053
:10388000144B70B49E69846805460162B068844236
:103890000CD800222A771B689A689442FBD95A6890
:1038A0002B606A6015605D6070BC70471A4600212D
:1038B0003177126891688842FBD9506801247060A2
:1038C0003260066056602C77314628469D6170BC98
:1038D000FCF7AEBCA01100200000000000000000BA
:1038E00008B5202383F3118883680133002B83609C
:1038F00003DD002383F3118808BD0346006800211F
:1039000002681A605360FFF7BBFF002383F311883E
:1039100008BD00BF00000000000000000000000023
:103920002DE9F04799460446202383F31188194E68
:10393000243947187369DFF860A0C76040F8019028
:103940000899002500F128094FF0010C00F1240E20
:103950004FF002087960C7F820A02946826006610E
:103960004361C26380F81C8080F81EC04577856380
:10397000456385611861C0F824E0C0F82890C0F85C
:103980002C907061FFF77CFF85F311882046BDE81D
:10399000F08700BFA01100204102000800000000D5
:1039A000074B30B41A689969146801250877636079
:1039B00015771C60104630BC9A61FCF739BC00BF1B
:1039C000A011002000000000000000000000000026
:1039D00010B5202383F311880B4CA269134653F8CA
:1039E000280F984208D001680D2491624B60002294
:1039F000047782F3118810BD0E20FFF7D1FFA26972
:103A0000906A02F12803EEE7A011002000000000F8
:103A1000202383F311888368013B002B836004DB40
:103A20000020002383F311887047034610B5084C2B
:103A30000520A26913625968136051600A605A60D8
:103A4000FFF7AEFFA369186A002383F3118810BD46
:103A5000A011002000000000000000000000000095
:103A600038B50446202383F31188037F0F2B07D03A
:103A7000084B426A9B6909201A606362FFF790FF56
:103A8000256A002383F311882046FFF731FE28467C
:103A900038BD00BFA01100200000000000000000A1
:103AA00010B4044600228168074B02771B689A68AD
:103AB0008A42FBD25A6820462360626014605C60D0
:103AC0005DF8044B704700BFA0110020000000000B
:103AD00042690346806910B582421DD09868541C23
:103AE00001305C619860117059691A6991420CD279
:103AF0001A6893420ED011680024196010464B607A
:103B00001462FFF7CDFF204610BDDA685A611A68CB
:103B10009342F0D1002010BD98680028DED06FF0ED
:103B2000030010BD000000000000000000000000C5
:103B30000E4B70B520229C6982F3118800F1280594
:103B4000067F2562C26A0E2E2163256062601460C2
:103B5000C46207D00C20FFF723FF206A002383F301
:103B6000118870BDFFF79CFFF4E700BFA011002093
:103B7000436B027F19430A2A41630AD00B2A00D003
:103B80007047036A19408B42FAD100230362FFF7A2
:103B900087BF036A1942F8D1704700BF00000000D8
:103BA00070B504680646A0420D460DD0E3682B436D
:103BB000E36015B12269134203D06068A168FFF782
:103BC000D7FF2468A642F1D170BD00BF00000000FD
:103BD000134A70B52023946983F31188A36BD3B182
:103BE00000260BE0956B1168104619604B609A60D7
:103BF000DD609363FFF754FFA36B43B11A68D96884
:103C00009342A163EED19E60A36B002BF6D1E36BD0
:103C1000A360FFF70DFE002383F3118870BD00BF82
:103C2000A0110020000000000000000000000000C3
:103C300030B40446114A2568C3689069AC42836376
:103C400017D0C16B4BB11A68934203D0926891426E
:103C500038BF1146DB68002BF5D1AA6B2B68816059
:103C6000236028465C60A560E260AC6330BCFFF76F
:103C700017BF0023A36030BC704700BFA011002015
:103C8000174B70B59D69202383F311880468C368BE
:103C9000A042AB631DD0E96B4BB11A68934203D0CD
:103CA0009268914238BF1146DB68002BF5D103467C
:103CB0002268A66B2046A9601A6053609C60DE6093
:103CC000A363FFF7EDFEFFF7B3FD002383F3118835
:103CD00070BD00238360002383F3118870BD00BF93
:103CE000A011002000000000000000000000000003
:103CF000F8B582682F4B9C69002A55D0A16893685B
:103D00000546994206D9137F9160062B33D0072BC5
:103D10001DD09BB12B4603E09968A268914202D363
:103D20001B689D42F8D15A682360626014605C6031
:103D300025620620BDE8F840FFF732BE92E80A008F
:103D40001960104612685360FFF7AAFEE2E7176891
:103D50005068166A076017683346786002E0986812
:103D6000884202D31B689E42F9D1596813605160A2
:103D70000A605A60CEE717685068166A07601768CD
:103D80003346786002E09868884202D31B689E42FE
:103D9000F9D15968136051600A605A60B268A1682D
:103DA00093688B42AFD3B5E7A36B8460C360A06315
:103DB000F8BD00BFA01100200000000000000000BE
:103DC00008B5202383F31188FFF792FF002383F3C4
:103DD000118808BD00000000000000000000000085
:103DE000836802460133002B836000DD704703685F
:103DF00010B41968002411604A601C6218465DF80E
:103E0000044BFFF74DBE00BF0000000000000000A3
:103E100070B5856881600135002D0CDC04466FF0BB
:103E2000010660680135436863601C60FFF738FE77
:103E3000012D0662F5D170BD0000000000000000F9
:103E400038B52022034682F311880E4A9469606ACD
:103E500004F12405A842236206D003686362FFF7D9
:103E60001FFE606AA842F8D1637F9B0704D12269D4
:103E700063691A61226953610F20BDE83840FFF77A
:103E80008FBD00BFA0110020000000000000000056
:103E90001C4B70B4DA6982420FD0026841681C334F
:103EA0000A60026800249A425160C46003D001890C
:103EB00013890B44138170BC7047194615680020A4
:103EC00041F81C5F8D426960D06016D04FF0804091
:103ED000416A1689DC8C2A8989B2B3180A1B9BB205
:103EE00092B293422B81E6D99B1A9BB2012B98BFC9
:103EF00002230B449BB24363DDE74FF08043D8605D
:103F0000D9E700BFA0110020000000000000000061
:103F1000F0B51E4E4FF08047B6465EF81C4F7D6AE6
:103F2000012998BF022174450361C260ABB21DD064
:103F30001944F38C89B22289CB1A9BB2934238BFC1
:103F40007963934205D924689B1A22899BB29A42CD
:103F5000F9D34FF6FF7162680460426010606060E0
:103F600003812289D31A2381B184F0BDCA1892B289
:103F70004FF0000E0225F384F0613062046044606B
:103F800001817A63C7F810E0FD60F0BDA011002048
:103F90004FF6FF7330B5994287B012D005460C4CEE
:103FA00001A8A3690B4AFFF7B3FF2846FFF7F8FC07
:103FB000049B13B101A8FFF76BFFA369186A07B050
:103FC00030BDFFF7EDFC024CA369186A07B030BDA5
:103FD000A0110020013600080000000000000000D1
:103FE00003468068421E002A9A6001DB0020704769
:103FF00010B461B1094A0520926913625C6882E8D5
:10400000180022605A605DF8044BFFF7C1BF98604A
:104010005DF8044B4FF0FF30704700BFA011002047
:1040200069B10246074B10B49B694468042083E8D9
:104030001400236053605DF8044BFFF7A9BF4FF0F5
:10404000FF307047A01100200000000000000000B9
:104050002DE9F04F044683B0894693461D46D0F8BB
:104060001C80202787F311880026B2460197B8F1FB
:10407000000F07D02046C04704E020462946FFF73E
:10408000CFFFD0B9A768002FF7D0A269A368511C51
:10409000013BA161A360137809F8013B2369A26980
:1040A0009A4224BFE368A3618AF311880136B345BD
:1040B00005D0019B83F31188D9E787F31188304637
:1040C00003B0BDE8F08F00BF00000000000000005A
:1040D00070B520230E46044683F31188C3693BB1B3
:1040E000984705E020463146FFF79AFF002813DB8A
:1040F000A568002DF6D0A169A36825694A1C013B7B
:10410000AA42A36028BFE368A261087828BFA36120
:10411000002383F3118870BD85F3118870BD00BF43
:1041200008B50146202383F311880820FFF730FFEC
:10413000002383F3118808BD000000000000000088
:1041400010B5EFF30584C4F308041CB1002383F316
:10415000118810BDFFF76CFB84F3118810BD00BF00
:10416000EFF30583C3F308031BB9202383F31188FE
:104170007047202383F31188704700BF00000000C0
:10418000C20710B410D52A4A116891423ED00023CC
:10419000096801339142FBD14C688C4232D064688B
:1041A000013B9442FBD16BBB830712D5204A1446D6
:1041B00054F81C1FA1422FD0002309680133A142EB
:1041C000FBD1126A8A421DD05268013BA242FBD148
:1041D000C3B910F0040012D0154A1369934221D0DC
:1041E00000201B6901309342FBD15969994209D0E3
:1041F000496901389142FBD1003018BF01205DF8B8
:10420000044B704701205DF8044B7047546894429A
:1042100018BF0023C3D1C7E7126AA24218BF002308
:10422000D2D1D6E7596900209942E1D1E7E700BF32
:10423000A0110020000000000000000000000000AD
:10424000FEE700BF000000000000000000000000CA
:10425000F0B4114E002506F1800796E81A00A3423B
:104260000DD21A46043951F8040F42F8040BA24249
:10427000F9D3DA43144424F0030404342344F268E9
:10428000934203D243F8045B9342FBD31036BE4201
:10429000E3D3F0BC704700BF806C00080000000052
:1042A000FEE700BF0000000000000000000000006A
:1042B000704700BF00000000000000000000000088
:1042C000704700BF00000000000000000000000078
:1042D000024B00221B605B609A6070478C130020C9
:1042E000024B01221B605B609A607047C013002084
:1042F000704700BF00000000000000000000000048
:10430000024B00221B605B609A607047C013002064
:10431000202383F3118862B672B683F3118862B6E4
:10432000002383F3118862B6704700BF00000000CD
:1043300038B5FDF7EDFFFDF773F9144D002414486F
:10434000FFF73EFD1248FFF79BFC1148FFF738FDD1
:104350000F48FFF795FC0E48FFF732FD0C48FFF7BA
:104360008FFC0B48FFF72CFD0948FFF789FC2B78E1
:104370000134002BE3D00748FEF7B2F8A000FEF7A7
:10438000BFF8BDE838400448FEF78AB81111002094
:104390008C130020206D0008306D00080000000024
:1043A00038B5FDF7B5FFFDF73BF9144D002414486F
:1043B000FFF72EFB1248FFF793FA1148FFF728FB8F
:1043C0000F48FFF78DFA0E48FFF722FB0C48FFF766
:1043D00087FA0B48FFF71CFB0948FFF781FA2B7897
:1043E0000134002BE3D00748FEF77AF8A000FEF76F
:1043F00087F8BDE838400448FEF752B81111002094
:10440000C0130020206D0008406D0008000000006F
:1044100010B5064CA3695B7F5A0706D40448FFF722
:10442000F7FAA3695B7F5B07F8D510BDA0110020E8
:10443000C013002000000000000000000000000089
:1044400038B5FDF765FFFDF7EBF8154D0024202387
:1044500083F3118813480121134A0023FFF758FD05
:1044600042F21071104A00231048FFF751FD0D4829
:10447000FFF70EFD0D48FFF70BFD002383F31188B6
:104480002B780134002BE2D00948FEF729F86000B0
:10449000FEF736F8BDE838400648FEF701B800BF21
:1044A0001111002078130020F1420008641300204D
:1044B000206D0008506D00080000000000000000A2
:1044C000F8B52649264B002201F110001B605B6005
:1044D00014461861D960996159619A60DA611A626B
:1044E0001746FDF715FFFDF79BF81E4E202585F3B7
:1044F000118800211A48FFF7EBFA01211848FFF74D
:10450000E7FA02211648FFF7E3FA03211448FFF700
:10451000DFFA87F311884FF6FF711148FFF7D8FDD6
:104520004FF6FF710E48FFF7D3FD4FF6FF710C48B1
:10453000FFF7CEFD0A484FF6FF71FFF7C9FD33784C
:104540000134002BD3D00848FDF7CAFFA000FDF7C7
:10455000D7FFBDE8F8400548FDF7A2BFCC13002007
:104560009C13002011110020206D00085C6D0008D4
:104570002DE9F041DFF8D08084B004AC002344F88A
:10458000043DFDF7C5FED8F818302A4F2A4E9A6828
:1045900038463346013A00944FF4A471FFF7C0F94E
:1045A000D8F81830254D9A684FF4A4712860334626
:1045B000013A009407F5A470FFF7B2F9D8F8183063
:1045C00068609A6807F524703346013A00944FF406
:1045D000A471FFF7A5F9D8F81830A8609A6807F514
:1045E00076703346013A00944FF4A471FFF798F9BE
:1045F000D8F818304FF4A4719A68E860013A33464D
:1046000007F5A4600094FFF78BF928614FF47A70E6
:10461000FFF786FDFDF7A4FEFDF78AFE0848FDF7CB
:104620005FFF0398FDF76CFF0648FDF739FF04B004
:10463000BDE8F08128090020C1460008F4120020DE
:10464000206D0008686D0008A01100200000000027
:10465000F0B5124B83B09B6900249D682746104E2D
:104660000135FDF755FEFCF7DBFF0E4B00970E48BA
:104670004FF4A4712A46FFF753F933780134002B25
:10468000F3D00A48FDF72CFF2046FDF739FF084814
:1046900003B0BDE8F040FDF703BF00BFA01100204C
:1046A00011110020914F000828090020206D0008FA
:1046B000746D000800000000000000000000000011
:1046C00038B50446084DFFF77BF8FFF779F8FFF798
:1046D00077F8FFF775F82368AA6904332360537FDE
:1046E0005B07F0D538BD00BFA0110020000000001E
:1046F0002DE9F0433A4E83B0B36900249A684FF431
:10470000A4710532374B38480094FFF709F9B369B3
:10471000364D9A684FF4A47128600432314B0094EE
:104720003348FFF7FDF8B36968609A684FF4A471E5
:1047300003322C4B2F480094FFF7F2F8B369A860BE
:104740009A684FF4A4710232264B2B480094FFF76D
:10475000E7F8B369E8609A684FF4A4710132214B1D
:1047600026480094FFF7DCF8A1462861FDF7D0FD4C
:10477000FCF756FFDFF898802027202687F3118862
:104780001F480021FFF744FB0025FFF751F889F38C
:10479000118898F800300134002BEED0FDF7E0FDD1
:1047A00086F3118816482946FFF732FBFFF740F8D9
:1047B00085F31188FDF7BCFD1248FDF791FE2046F8
:1047C000FDF79EFE1048FDF78BFE04EB4400400011
:1047D000FDF796FE0D4803B0BDE8F043FDF760BE5F
:1047E000A01100201144000828090020F412002024
:1047F000700A0020B80B0020000D0020480E002099
:10480000C0130020206D0008806D0008686D00084E
:104810001111002000000000000000000000000056
:10482000F0B5134B83B09B6900249D682746114E59
:10483000013DFDF76DFDFCF7F3FE0F4B4FF4A47146
:104840002A4600970D48FFF76BF8FFF709F9337810
:104850000134002BF1D00A48FDF742FE2046FDF757
:104860004FFE084803B0BDE8F040FDF719BE00BF99
:10487000A011002011110020914F000828090020EC
:10488000206D0008746D00080000000000000000AA
:104890002DE9F047254B82B09B6900259A684FF4BB
:1048A000A4710132224B23480095FFF739F8224BBF
:1048B00004461860AA46FDF72BFDFCF7B1FEDFF8B1
:1048C00084904FF02008202788F31188002120468B
:1048D000FEF7D6FF20460021FEF7D2FF204600213A
:1048E000FEF7CEFF20460021FEF7CAFF00268AF31E
:1048F000118899F800300435002BE4D087F3118833
:104900004FF0FF312046FEF7BBFF86F31188FDF71D
:104910000FFD0A48FDF7E4FD6800FDF7F1FD0848CA
:1049200002B0BDE8F047FDF7BBBD00BFA0110020FD
:104930005149000828090020F4120020206D0008C9
:10494000686D000811110020000000000000000048
:10495000074A10B52023946983F311880320FFF7D9
:104960001FF8236A002BF9D0002383F3118810BDB0
:10497000A011002000000000000000000000000066
:1049800070B520260025FFF723F8046B86F3118805
:104990002146FEF775FF85F31188002CF3D170BD19
:1049A00070B50546FDF7B4FCFCF73AFE074E00244F
:1049B00028460121FFF7BCF833780134002BF7D0EB
:1049C00028460021FFF7B4F8204670BD11110020E1
:1049D0002DE9F0412C4F2D4EBB6982B09A6800251D
:1049E0003046013200954FF4A471294BFEF798FF31
:1049F000BB69284C9A68DFF8AC8020604346023AD5
:104A0000009506F5A4704FF4A471FEF789FFBB6909
:104A100060609A6806F524704346033A00954FF4A7
:104A2000A471FEF77DFFBB69A0609A6806F57670F9
:104A30004346043A00954FF4A471FEF771FFBB6939
:104A40004FF4A4719A68E060053A434606F5A46005
:104A50000095FEF765FF20612068FFF7A1FF04467F
:104A6000FDF766FC0C48FDF73BFD2046FDF748FDD1
:104A70000A48FDF735FD6000FDF742FD084802B029
:104A8000BDE8F041FDF70CBDA01100202809002071
:104A900081490008F4120020206D0008946D000880
:104AA000686D0008914F0008000000000000000041
:104AB00010B5134A82B09269002392684FF4A47132
:104AC000013200930F48104BFEF72AFF0F4B18607E
:104AD000FFF766FF0446FDF72BFC0D48FDF700FDD0
:104AE0002046FDF70DFD0B48FDF7FAFC6000FDF7D1
:104AF00007FD094802B0BDE81040FDF7D1BC00BF7A
:104B0000A01100202809002081490008F41200208B
:104B1000206D0008946D0008686D0008000000001A
:104B200010B5134A82B09269002392684FF4A471C1
:104B3000013A00930F48104BFEF7F2FE0F4B18603E
:104B4000FFF72EFF0446FDF7F3FB0D48FDF7C8FC09
:104B50002046FDF7D5FC0B48FDF7C2FC6000FDF7D1
:104B6000CFFC094802B0BDE81040FDF799BC00BF7A
:104B7000A01100202809002081490008F41200201B
:104B8000206D0008946D0008686D000800000000AA
:104B900038B5202484F311880120FFF7F1FA0023AF
:104BA00083F3118880F00101C9B20120FDF740FCB8
:104BB000054600B138BD84F311880220FFF7E0FA02
:104BC00085F3118880F00101C9B20220FDF730FCA5
:104BD00005460028EED184F311880420FFF7D0FAAF
:104BE00085F3118880F00101C9B20320FDF720FC94
:104BF00005460028DED184F311880820FFF7C0FAAB
:104C000085F31188BDE8384080F00101C9B2042065
:104C1000FDF70EBC000000000000000000000000D6
:104C200010B586B0EFF311831BB9FFF799FAFFF7C0
:104C300087FA202383F31188EFF311831BB9FFF761
:104C40008FFAFFF77DFA002383F31188EFF31183C6
:104C500013B9202383F31188EFF3118313B92023B1
:104C600083F31188002383F31188202282F31188B3
:104C7000EFF311820AB183F31188EFF3118313B1BB
:104C8000002383F3118800230493202383F31188E6
:104C9000049B01AC13B12046FFF7FAF8204601212E
:104CA0000B4A0023FFF734F9002484F311880A200B
:104CB000FFF736FA202383F31188049984F31188CF
:104CC000B1FA81F101204909FDF7B2FB06B010BD30
:104CD000E14C00080000000000000000000000009F
:104CE00008B5202383F31188002282F3118883F30F
:104CF0001188EFF311831BB9FFF732FAFFF720FA9F
:104D0000002383F3118808BD0000000000000000AC
:104D100002480021C822FDF753BE00BF5C080020F6
:104D20002DE9F047202382B083F311888F4F7A69F1
:104D3000BB699A425DD000210120FDF779FBB8BB29
:104D400080F311884124894D2146013428464FF6CD
:104D5000FF72E4B2FDF734FE452CF4D1202686F331
:104D60001188A9680220B1FA81F14909FDF760FBB9
:104D70008046E8B980F31188824604244FF0200968
:104D800086F31188794D2846FDF74AFD8AF311888C
:104D9000C0B2FDF765FB013CF0D189F311886A6967
:104DA000AB699A422AD041460320FDF741FB28B166
:104DB000002383F3118802B0BDE8F08780F31188E7
:104DC00004206B49FDF70CFB04460028F3D1202694
:104DD00086F31188654D2846FDF722FD033014BF88
:104DE000002101210520FDF723FB70B184F3118818
:104DF000E1E7B968003118BF01219DE7AB6813F105
:104E0000000818BF4FF00108CDE780F31188594919
:104E1000034608222846FDF7B3FCA0F10401B1FACD
:104E200081F106204909FDF703FB04460028C2D1A1
:104E300086F31188A9680720B1FA81F14909FDF7C5
:104E4000F7FA80460028D1D180F311884A4B4FF4FD
:104E5000A4719B6949489A68494B0132CDF800809A
:104E6000FEF75EFD474B186086F31188E9682B69F1
:104E7000AA685B1A991AA1F10401B1FA81F108201C
:104E80004909FDF7D5FA10B188F3118893E780F34B
:104E90001188FDF74DFA86F31188E9682A692B68B5
:104EA000521AAB42A9616961AA6018BF6FF0010490
:104EB00009D01A68184657603A601C62FEF7F0FD88
:104EC0003B68BB42F5D1002585F31188202686F387
:104ED00011883B69FA68B9689B1A591AB1FA81F1CD
:104EE00009204909FDF7A4FA204C034610B185F3C7
:104EF000118860E780F311881E4902222046FDF7E1
:104F00003FFC0238414241410A20FDF791FA034635
:104F100000287FF450AF174902222046FDF730FCED
:104F2000821E514251410B20FDF782FA05460028AE
:104F30007FF441AF86F31188A1680C20B1FA81F1AA
:104F40004909FDF775FA01460028D0D180F3118890
:104F50000A222046FDF734FD431C594259410D20D9
:104F600002B0BDE8F047FDF763BA00BF5C0800205F
:104F7000A06D0008700A0020A01100202809002060
:104F8000114D0008F4120020000000000000000095
:104F9000FEF756BF00000000000000000000000007
:104FA000704700BF0000000000000000000000008B
:104FB00030B4084A084B0948151D042400211D611E
:104FC0009C601B605B60DA609A615A61D86119620B
:104FD00030BC7047280900205C080020A14F000861
:104FE000084A094B094810B40021141D1C611B60BC
:104FF0005B60DA609A615A61D861996019625DF804
:10500000044B7047280900208C080020A14F00089D
:10501000094910B400224FF4CC64084B81E8140015
:1050200003F11000DA609960186158611A609A61A2
:105030005DF8044B704700BF2809002020130020B2
:10504000034B00224FF4A47159601A609A607047B4
:10505000940F00200000000000000000000000008D
:10506000094910B400224FF4CC64084B81E81400C5
:1050700003F11000DA609960186158611A609A6152
:105080005DF8044B704700BF280900202013002062
:105090000020704700000000000000000000000039
:1050A000034B00224FF4A47159601A609A60704754
:1050B0008008002000000000000000000000000048
:1050C0000148C821FFF704B88C0800200000000048
:1050D0000078FDF7C5B900BF000000000000000027
:1050E0002DE9F041202482B084F31188984F0120EB
:1050F000B968B1FA81F14909FDF79AF90646E8B9AC
:1051000080F3118884F311884124914D21460134A4
:105110002846E4B2FEF7DCFC452CF6D1002383F3ED
:105120001188202383F31188AA696B699A423AD0C7
:1051300031460220FDF77CF9044628B1002383F3B1
:10514000118802B0BDE8F08180F31188202383F339
:1051500011887F482146FEF7BBFC043014BF0021B4
:1051600001210320FDF764F9C0B980F311880424FC
:10517000774D4FF6FF712846FEF7AAFFC0B2FDF744
:105180006FF9013CF4D1202686F31188A968042028
:10519000B1FA81F14909FDF74BF948B184F311885F
:1051A00002B0BDE8F081AE68003618BF0126BFE747
:1051B00084F3118805206749FDF712F90028C0D152
:1051C00086F311884124624D214601342846E4B219
:1051D000FEF77EFC452CF6D1002383F311885E494F
:1051E00008222846FEF734FFA0F10401B1FA81F14C
:1051F00006204909FDF71CF904460028A1D1202604
:1052000086F31188A9680720B1FA81F14909FDF7F1
:105210000FF90028C2D180F3118886F31188412448
:105220004B4D214601342846E4B2FEF751FC452C93
:10523000F6D1002383F31188474928460222FEF75E
:1052400007FFA0F10201B1FA81F108204909FDF739
:10525000EFF800287FF475AF03463F490222284645
:10526000FEF7F6FEA0F10201B1FA81F10920490929
:10527000FDF7DEF8804600287FF463AF202686F332
:105280001188A9680A20B1FA81F14909FDF7D0F81F
:10529000044610B188F3118853E780F3118886F330
:1052A000118821462846FEF713FC2B68EA68AB42BA
:1052B000AC60AA616A6118BF6FF0010409D01A6876
:1052C000184657603A601C62FEF7EAFB3B68BB4237
:1052D000F5D14FF0000888F31188202686F3118855
:1052E000B9680B20B1FA81F14909FDF7A1F8184D11
:1052F00004460028CED180F31188184B4FF4A471D6
:105300009B6917489A68174B01320094FEF708FB17
:10531000154B186086F31188A9680C20B1FA81F149
:105320004909FDF785F800287FF438AF80F311882C
:10533000FCF7FEFF28460A21FEF7CAFE431C59422D
:1053400059410D2002B0BDE8F041FDF771B800BF32
:105350008C080020A06D0008700A0020A011002019
:1053600028090020C1500008F412002000000000AD
:105370002DE9F8438046202585F31188104E4FF023
:1053800000093069837F0133837789F311884F46A1
:1053900000E02046404508BF49F0010985F3118827
:1053A0000469B44217BFA37F00240133A37787F3B6
:1053B0001188FEF79DF9002CEBD14846BDE8F88333
:1053C000A01100200000000000000000000000000C
:1053D000464B10B59B69464998680138FBF7F0FECB
:1053E000817F04460120091AB1FA81F14909FDF7CC
:1053F0001FF800B110BD202383F31188A37F013370
:10540000A37780F31188A17F0220091AB1FA81F1F4
:105410004909FDF70DF80028ECD12046FEF768F9A0
:10542000A17F0320A1F10101B1FA81F14909FCF743
:10543000FFFF0028DED12046FFF79AFF0146042037
:10544000FCF7F6FF0028D5D12046FFF791FF014673
:105450000520FCF7EDFF0028CCD12046FEF748F9E7
:10546000A17F0620B1FA81F14909FCF7E1FF00288C
:10547000C0D1217F0720B1FA81F14909FCF7D8FF9B
:105480000028B7D12046FFF773FF01460820FCF73C
:10549000CFFF0028AED12046FFF76AFF0146092062
:1054A000FCF7C6FF0028A5D13220FEF739FE217F88
:1054B0000A20A1F10F0359425941FCF7B9FF002816
:1054C00098D12046FFF754FF01460B20FCF7B0FFB0
:1054D00000288FD12046FFF74BFFBDE8104080F039
:1054E0000101C9B20C20FCF7A3BF00BFA01100202E
:1054F0000460000800000000000000000000000040
:1055000070B52F4B2F4C05222025002085F31188E4
:1055100021682360196080F311886168013A0B44A7
:10552000F4D105252748FDF75BF8011C18BF0121C0
:105530000120FCF77DFF90BB013DF3D12148FDF731
:105540004FF8B0FA80F102204909FCF771FF30BB37
:105550001D4B202603F1140053F8042B86F3118809
:1055600021681160226085F311888342F4D10524FB
:10557000144D2846FDF734F8011C18BF0121032003
:10558000FCF756FF58B9013CF2D12846FDF728F840
:10559000B0FA80F104204909FCF74AFF00B170BD60
:1055A0000A4A102328462C60AA606B60FDF718F8A1
:1055B000BDE87040B0FA80F105204909FCF738BF1A
:1055C0002809002080080020006D00089150000884
:1055D0002F4AF8B592692F4B2F49956803F11007B0
:1055E0002026002453F8042B86F3118808681060E5
:1055F0000A6084F31188BB42F4D12849681EFBF786
:105600002FFE274C27492060A81EFBF729FE2649BC
:105610006060E81EFBF724FE2449A060281FFBF70A
:105620001FFE2349E060681FFBF71AFE2168206116
:1056300041B1616831B1A16821B1E16811B1B0FA3D
:1056400080F149090120FCF7F3FE00B1F8BDFCF739
:105650006FFE02201749FCF7C3FE0028F6D1042490
:105660000D48FCF7BDFF011C18BF01210320FCF70A
:10567000DFFE0028EAD1013CF2D10748FCF7B0FF79
:10568000BDE8F840B0FA80F104204909FCF7D0BE2B
:10569000A0110020006D0008940F00200460000895
:1056A000F4120020006000080C6000080860000888
:1056B00014600008A06D0008000000000000000059
:1056C00070B52C4B82B09B6901A99D682A48FCF7F4
:1056D0009FFF2A49681EFBF773FD294C294920606A
:1056E000A81EFBF76DFD694660602348FCF790FF3C
:1056F00000992148FCF7FCFF23490646E81EFBF70A
:105700005FFDA0603046FCF7ABFF216821B1616806
:1057100011B1A16831B300210120FCF789FE08B165
:1057200002B070BDFCF704FE02201849FCF758FED9
:105730000028F5D169461048FCF76AFFA0F1010185
:10574000B1FA81F103204909FCF772FE0028E7D184
:105750009DE80A00C91AB1FA81F104204909FCF751
:1057600067FEDDE7E368002BD6D12169B1FA81F14C
:105770004909D1E7A011002020130020046000088F
:10578000F4120020006000080C600008B06D0008F2
:1057900070B582B001A90020FCF73AFF102100206B
:1057A000FCF7A6FF011C054618BF01210120FCF7EC
:1057B0003FFE044608B102B070BD2846FCF750FF1A
:1057C0006FF0FF012046FCF793FFB0FA80F1022052
:1057D0004909FCF72DFE0028EDD101A97B48FCF713
:1057E00017FF10217948FCF783FF10210646774800
:1057F000FCF77EFF102105467448FCF779FF04464C
:105800003046FCF72DFF2846FCF72AFF2046FCF720
:1058100027FF69466D48FCF7FBFEA0F10101B1FAD4
:1058200081F103204909FCF703FE0028C3D11021B0
:105830006648FCF75DFF102104466448FCF758FFFA
:10584000054610216148FCF753FFFCF709FF284685
:10585000FCF706FF2046FCF703FF69465B48FCF7B0
:10586000D7FEA0F10101B1FA81F104204909FCF74A
:10587000DFFD00289FD111215448FCF739FF10218A
:1058800004465248FCF734FF05462046FCF7E8FE84
:1058900069464E48FCF7BCFEA0F10201B1FA81F165
:1058A00005204909FCF7C4FD002884D11021474890
:1058B000FCF71EFF694604464448FCF7A9FE012890
:1058C00000F0818069464148FCF7A2FEA0F1020188
:1058D000B1FA81F149090620FCF7AAFD00287FF4FE
:1058E0006AAF2846FCF7BCFE2046FCF7B9FE6946C5
:1058F0003648FCF78DFE461E714271410720FCF7C9
:1059000097FD00287FF457AF10213048FCF7F0FED8
:10591000102105462D48FCF7EBFE04462846FCF70F
:105920009FFE69462948FCF773FE851E694269415E
:105930000820FCF77DFD00287FF43DAF202123489F
:10594000FCF7D6FEFCF78CFE2046FCF789FE694684
:105950001E48FCF75DFE0138414241410920FCF739
:1059600067FD00287FF427AF69461848FCF750FE12
:1059700000991648FCF7BCFE694604461348FCF73C
:1059800047FEB0FA80F10A204909FCF751FD0028D2
:105990007FF411AF2046FCF763FE69460B48FCF725
:1059A00037FE421E514251410B20FCF741FD0028B9
:1059B0007FF401AF9DE80A00CB1A594259410C20EF
:1059C000FCF736FDF7E6014685E700BFE01300204F
:1059D000094910B400224FF4CC64084B81E814004C
:1059E00003F11000DA609960186158611A609A61D9
:1059F0005DF8044B704700BF28090020E013002029
:105A000070B5554C2023A26983F31188536B3BB9C1
:105A100083F3118801210120FCF70AFD80B170BDDC
:105A20005942194023EA01035363002383F3118889
:105A3000B1FA81F101204909FCF7FAFC0028EED106
:105A4000A369202282F311885A6B002A6FD0586311
:105A500080F3118801460220FCF7EAFC0028DED121
:105A6000A369202282F311885A6B013263D080F33C
:105A70001188012001460320FCF7DAFC0028CED172
:105A8000A669202383F31188756B4DB94FF0FF335E
:105A90000A2033620146FEF77BFA00284FDB756B64
:105AA0006942294025EA01057563002383F31188C3
:105AB000B1FA81F149090420FCF7BAFC0028AED103
:105AC000A669202383F31188756B4DB94FF0FF331E
:105AD0000A2033620146FEF75BFA002833DB756B60
